S01D000047726F756E64466C6F6F724175746F6D6174696F6E2E7372656375
S11300000C942A000C943C000C943C000C943C008E
S11300100C943C000C943C000C943C000C943C006C
S11300200C943E000C943C000C943C000C943C005A
S11300300C943C000C943C000C943C000C943C004C
S11300400C943C000C943C000C943C000C943C003C
S11300500C943C0011241FBECFE5D4E0DEBFCDBF1D
S113006020E0A0E6B0E001C01D92A136B207E1F79E
S11300700E9461000C943D010C9400001F920F92A9
S11300800FB60F9211248F93809160008F5F80933D
S11300906000809160008A3028F01092600088E04F
S11300A081BDFFCF8F910F900FBE0F901F901895B9
S11300B0A89A8FE493EC0197F1F700C00000A89888
S11300C00895CF93DF93CDB7DEB7E4970FB6F894D6
S11300D0DEBF0FBECDBF1ABA8FEF84BB8BBB15BA80
S11300E078948EB585608EBD89B7846089BF1DBC48
S11300F01CBC912C812CCE0101967C01BB24B394B1
S1130100A12C08E110E06894CC24C3F8D12C0F2E64
S1130110F4E37F2EF02D292D382D89B3837081309F
S113012069F4F901EE0FFF1FEE0DFF1D118210821D
S11301302F5F3F4F89B383708130E1F389B38370BC
S1130140823069F4F901EE0FFF1FEE0DFF1DB0823E
S1130150A1822F5F3F4F89B383708230E1F32A314C
S11301603105D9F6FE0133968B2D9A2D692D782D04
S1130170A92DB82D893091056CF420813181A60117
S1130180481B590B02C0220F331F4A95E2F7A22BDA
S1130190B32B0CC020813181A801481B590B02C02C
S11301A0220F331F4A95E2F7622B732B0196329686
S11301B089319105F9F6AC3BB10539F462397848D7
S11301C009F055C00E94580052C0A43BB10539F44F
S11301D0683E724D09F04BC00E94580048C0AC3DC7
S11301E0B10539F4683E724D09F041C00E945800CF
S11301F03EC0A634B10531F4683E734DC1F50E948A
S1130200580035C0AD35B10531F4683E734D79F50C
S11302100E9458002CC0A13EB10531F4683E724DD5
S113022031F50E94580023C0A339B10531F4683E6A
S1130230724DE9F40E9458001AC0AF3AB10531F486
S1130240683E714DA1F40E94580011C0A633B10557
S113025031F4683E734D59F40E94580008C0AF3C15
S1130260B10529F4683E724D11F40E945800F7015B
S1110270872D11928A95E9F74ECFF894FFCFAF
S9030000FC
