:100000000C942A000C943F000C943F000C943F0089
:100010000C943F000C943F000C943F000C943F0064
:100020000C943F000C943F000C943F000C943F0054
:100030000C943F000C943F000C943F000C943F0044
:100040000C943F000C943F000C943F000C943F0034
:100050000C943F0011241FBECFE5D8E0DEBFCDBF1A
:1000600010E0A0E6B0E0EAE5F8E002C005900D92ED
:10007000A438B107D9F70E949D000C942B040C946E
:10008000000088BB80E282BB88E78A95F1F712BA4C
:1000900088E78A95F1F7089588BB82E282BB88E7FA
:1000A0008A95F1F782E082BB88E78A95F1F7089597
:1000B000CF93DF93EC018881882331F021960E9451
:1000C0004C0089918111FBCFDF91CF9108950F935F
:1000D0001F93CF93DF93CDB7DEB7A8970FB6F894F1
:1000E000DEBF0FBECDBF9F938F9383E690E09F93BB
:1000F0008F938E010F5F1F4F1F930F930E94530129
:10010000C8010E9458000F900F900F900F900F9011
:100110000F90A8960FB6F894DEBF0FBECDBFDF914B
:10012000CF911F910F91089560E088E30E944100F4
:1001300060E08CE00E9441000895CF93DF93CDB73B
:10014000DEB7E4970FB6F894DEBF0FBECDBF9FEFCA
:1001500097BB1ABA81B38A6281BB9BBB0E94940091
:1001600060E081E00E9441008FE19EE40197F1F799
:1001700000C0000086E690E00E94580000E010E019
:10018000E12CF12C212CFE0131965F014424439493
:10019000512C0F2EF8E1CF2ED12CF02D689466242F
:1001A00063F8712C0F2EF4E33F2EF02D222D30E05A
:1001B00089B38370813069F4F901EE0FFF1FEA0DF6
:1001C000FB1D118210822F5F3F4F89B383708130F6
:1001D000E1F389B38370823069F4F901EE0FFF1FF8
:1001E000EA0DFB1D408251822F5F3F4F89B3837020
:1001F0008230E1F32A313105D9F6FE013396842DA0
:10020000952D893091056CF420813181A301481B23
:10021000590B02C0220F331F4A95E2F7E22AF32A54
:100220000CC020813181A601481B590B02C0220F4E
:10023000331F4A95E2F7022B132B01963296893130
:100240009105F9F6480160E080E80E9441008EE6E1
:1002500090E00E945800C7010E94670082E890E089
:100260000E945800FCEBEF16F10441F4023988E8D3
:10027000180721F483E790E00E94580060E080ECCA
:100280000E9441008BE790E00E945800C4010E9448
:10029000670080E890E00E945800F501832D1192DC
:1002A0008A95E9F783CFAEE0B0E0E9E5F1E00C94A0
:1002B00002040D891E8986E08C831A8309838FEFDF
:1002C0009FE79E838D83AE01475E5F4F6F89788D78
:1002D000CE0101960E9476012F813885F801E20F48
:1002E000F31F10822E96E4E00C941E04ACE0B0E004
:1002F000ECE7F1E00C94F4037C016B018A01FC0152
:1003000017821682838181FFBDC1CE0101964C0107
:10031000F7019381F60193FD859193FF81916F0120
:10032000882309F4ABC1853239F493FD859193FF9D
:1003300081916F01853229F4B70190E00E945E033C
:10034000E7CF512C312C20E02032A0F48B3269F021
:1003500030F4803259F0833269F420612CC08D3240
:1003600039F0803339F4216026C02260246023C034
:10037000286021C027FD27C030ED380F3A3078F4CF
:1003800026FF06C0FAE05F9E300D1124532E13C0E5
:100390008AE0389E300D1124332E20620CC08E323C
:1003A00021F426FD6BC1206406C08C3611F4206850
:1003B00002C0883641F4F60193FD859193FF819147
:1003C0006F018111C1CF982F9F7D9554933028F4F0
:1003D0000C5F1F4FFFE3F9830DC0833631F0833785
:1003E00071F0833509F05BC022C0F80180818983F8
:1003F0000E5F1F4F44244394512C540115C0380103
:10040000F2E06F0E711CF801A080B18026FF03C0DE
:10041000652D70E002C06FEF7FEFC5012C870E9451
:1004200053032C0183012C852F77222E17C038010E
:10043000F2E06F0E711CF801A080B18026FF03C0AE
:10044000652D70E002C06FEF7FEFC5012C870E9421
:1004500048032C012C852068222E830123FC1BC01D
:10046000832D90E048165906B0F4B70180E290E081
:100470000E945E033A94F4CFF50127FC859127FE94
:1004800081915F01B70190E00E945E0331103A94C0
:10049000F1E04F1A51084114510471F7E5C0843658
:1004A00011F0893639F5F80127FF07C060817181A5
:1004B000828193810C5F1F4F08C060817181072E7C
:1004C000000C880B990B0E5F1F4F2F76722E97FF33
:1004D00009C090958095709561957F4F8F4F9F4F84
:1004E0002068722E2AE030E0A4010E949603A82E14
:1004F000A81844C0853729F42F7EB22E2AE030E0B8
:1005000025C0F22FF97FBF2E8F36C1F018F4883541
:1005100079F0B4C0803719F0883721F0AFC02F2FA1
:100520002061B22EB4FE0DC08B2D8460B82E09C0A0
:1005300024FF0AC09F2F9660B92E06C028E030E045
:1005400005C020E130E002C020E132E0F801B7FE52
:1005500007C060817181828193810C5F1F4F06C04B
:100560006081718180E090E00E5F1F4FA4010E94C6
:100570009603A82EA818FB2DFF777F2E76FE0BC0C2
:10058000372D3E7FA51450F474FE0AC072FC08C0DB
:10059000372D3E7E05C0BA2C372D03C0BA2C01C0C2
:1005A000B52C34FF0DC0FE01EA0DF11D80818033B2
:1005B00011F4397E09C032FF06C0B394B39404C06D
:1005C000832F867809F0B39433FD13C030FF06C043
:1005D0005A2CB31418F4530C5B18B32CB31468F4EE
:1005E000B70180E290E03C870E945E03B3943C85B3
:1005F000F5CFB31410F43B1801C0312C34FF12C0F6
:10060000B70180E390E03C870E945E033C8532FFA7
:1006100017C031FD03C088E790E002C088E590E094
:10062000B7010CC0832F867859F031FF02C08BE2EE
:1006300001C080E237FD8DE2B70190E00E945E03C9
:10064000A51438F4B70180E390E00E945E035A9449
:10065000F7CFAA94F401EA0DF11D8081B70190E073
:100660000E945E03A110F5CF332009F451CEB701EB
:1006700080E290E00E945E033A94F6CFF701868113
:10068000978102C08FEF9FEF2C96E2E10C9410044B
:10069000FC010590615070400110D8F7809590954D
:1006A0008E0F9F1F0895FC01615070400190011052
:1006B000D8F7809590958E0F9F1F08950F931F93E5
:1006C000CF93DF93FB01238121FD03C08FEF9FEFC9
:1006D00028C022FF16C046815781248135814217E8
:1006E000530744F4A081B1819D012F5F3F4F3183B7
:1006F00020838C93268137812F5F3F4F378326835A
:1007000010C0EB01092F182F0084F185E02D099509
:10071000892BE1F68E819F8101969F838E83812FA5
:10072000902FDF91CF911F910F910895FA01AA2781
:10073000283051F1203181F1E8946F936E7F6E5F24
:100740007F4F8F4F9F4FAF4FB1E03ED0B4E03CD0D2
:10075000670F781F891F9A1FA11D680F791F8A1FB5
:10076000911DA11D6A0F711D811D911DA11D20D01C
:1007700009F468943F912AE0269F11243019305DD6
:100780003193DEF6CF010895462F4770405D4193C7
:10079000B3E00FD0C9F7F6CF462F4F70405D4A3314
:1007A00018F0495D31FD4052419302D0A9F7EACFDC
:1007B000B4E0A6959795879577956795BA95C9F70B
:1007C00000976105710508959B01AC010A2E0694FE
:1007D0005795479537952795BA95C9F7620F731FB7
:1007E000841F951FA01D08952F923F924F925F92F4
:1007F0006F927F928F929F92AF92BF92CF92DF9231
:10080000EF92FF920F931F93CF93DF93CDB7DEB795
:10081000CA1BDB0B0FB6F894DEBF0FBECDBF099429
:100820002A88398848885F846E847D848C849B8480
:10083000AA84B984C884DF80EE80FD800C811B818E
:10084000AA81B981CE0FD11D0FB6F894DEBF0FBEBD
:0A085000CDBFED010895F894FFCF2D
:10085A0025640025750057656C636F6D6500464316
:10086A003A2000726F6873696E7300434E3A200033
:04087A00202020001A
:00000001FF
