S01D000047726F756E64466C6F6F724175746F6D6174696F6E2E7372656375
S11300000C942A000C943C000C943C000C943C008E
S11300100C943C000C943C000C943C000C943C006C
S11300200C943E000C943C000C943C000C943C005A
S11300300C943C000C943C000C943C000C943C004C
S11300400C943C000C943C000C943C000C943C003C
S11300500C943C0011241FBECFE5D4E0DEBFCDBF1D
S113006020E0A0E6B0E001C01D92A136B207E1F79E
S11300700E9461000C947A010C9400001F920F926C
S11300800FB60F9211248F93809160008F5F80933D
S11300906000809160008C3C28F01092600088E041
S11300A081BDFFCF8F910F900FBE0F901F901895B9
S11300B0A89A87EA91E60197F1F700C00000A89892
S11300C00895CF93DF93CDB7DEB7E4970FB6F894D6
S11300D0DEBF0FBECDBF1ABA8FEF84BB8BBB15BA80
S11300E078948EB585608EBD89B7846089BF1DBC48
S11300F01CBC20E030E0BB24B394A12CC12CD12C37
S113010008E110E06894EE24E3F8F12C20C02C2DD3
S11301103D2D1DC02C2D3D2D1AC02C2D3D2D17C05D
S11301202C2D3D2D14C02C2D3D2D11C02C2D3D2DDD
S11301300EC02C2D3D2D0BC02C2D3D2D08C02C2D7B
S11301403D2D05C02C2D3D2D02C02C2D3D2D89B3F8
S11301508370813089F4F901EE0FFF1F81E090E094
S11301608C0F9D1FE80FF91F118210822F5F3F4FE4
S113017089B383708130E1F389B38370823009F0ED
S1130180ACC0F901EE0FFF1F81E090E08C0F9D1FC2
S1130190E80FF91FB082A1822F5F3F4F89B38370AC
S11301A08230E1F39AC0893091056CF42081318169
S11301B0A701481B590B02C0220F331F4A95E2F7CF
S11301C0A22BB32B0CC020813181A801481B590BF1
S11301D002C0220F331F4A95E2F7622B732B01965C
S11301E0329689319105F9F6AC3BB10549F462398F
S11301F0784809F08CCF0E9458002C2D3D2DA7CFB4
S1130200A43BB10549F4683E724D09F083CF0E94C6
S113021058002C2D3D2D9BCFAC3DB10549F4683ED3
S1130220724D09F07ACF0E9458002C2D3D2D8FCFAE
S1130230A634B10549F4683E734D09F071CF0E94AC
S113024058002C2D3D2D83CFAD35B10549F4683EC2
S1130250734D09F068CF0E9458002C2D3D2D77CFA7
S1130260A13EB10549F4683E724D09F05FCF0E948A
S113027058002C2D3D2D6BCFA339B10549F4683EB0
S1130280724D09F056CF0E9458002C2D3D2D5FCFA2
S1130290AF3AB10549F4683E714D09F04DCF0E9463
S11302A058002C2D3D2D53CFA633B10549F4683E9B
S11302B0734D09F044CF0E9458002C2D3D2D47CF9B
S11302C0AF3CB10509F03ECF683E724D09F03DCF19
S11302D00E9458002C2D3D2D3ACF2A31310509F0CA
S11302E036CFFE0133968B2D9A2D6C2D7D2DAC2DA2
S10B02F0BD2D59CFF894FFCF96
S9030000FC
